:020000040800F2
:100000002007002089010008552200085722000817
:100010005B2200085F220008632200080000000045
:10002000000000000000000000000000672200083F
:1000300069220008000000006B2200086D22000801
:10004000A3010008A3010008A3010008A301000800
:10005000A3010008A3010008A3010008A3010008F0
:10006000A3010008A3010008A3010008A3010008E0
:10007000A3010008A3010008A3010008A3010008D0
:10008000A3010008A3010008A3010008A3010008C0
:10009000A3010008A3010008A3010008A3010008B0
:1000A000A3010008A3010008A3010008A3010008A0
:1000B000332900080D270008A3010008A301000848
:1000C000A3010008A3010008A3010008A301000880
:1000D000A3010008E52D000823310008A301000852
:1000E000A3010008A3010008A301000800F002F822
:1000F00000F03AF80AA090E8000C82448344AAF188
:100100000107DA4501D100F02FF8AFF2090EBAE885
:100110000F0013F0010F18BFFB1A43F0010318473B
:10012000C0340000E0340000103A24BF78C878C121
:10013000FAD8520724BF30C830C144BF04680C60ED
:10014000704700000023002400250026103A28BF35
:1001500078C1FBD8520728BF30C148BF0B60704739
:100160001FB51FBD10B510BD03F035F81146FFF7E0
:10017000F7FF01F0D5FF03F053F803B4FFF7F2FFE8
:1001800003BC02F0CFFD0000094880470948004742
:10019000FEE7FEE7FEE7FEE7FEE7FEE7FEE7FEE737
:1001A000FEE7FEE704480549054A064B7047000094
:1001B0004F230008ED000008200100202007002048
:1001C000200300202003002031490143314A1160FF
:1001D000704770B5002100230F22C47804B32D4C62
:1001E000246804F4E064C4F5E064210AC1F1040366
:1001F000CA40447804FA03F1847814402143090189
:10020000254C0678A155047804F01F050124AC4064
:1002100005786D11AD0005F1E025C5F8004109E054
:10022000047804F01F050124AC401C4D06787611BB
:1002300045F8264070BD1A4A0A400243154B1B1F61
:100240001A60704739B1134A121D12680243114BEC
:100250001B1D1A6006E00F4A121D126882430D4BE7
:100260001B1D1A607047042808D14FF0E02109696E
:1002700041F004014FF0E022116107E04FF0E0216E
:10028000096921F004014FF0E0221161704700007C
:100290000000FA050CED00E000E400E080E100E081
:1002A00080FFFF1F10B50446FA48844208D101219F
:1002B000401500F055FD0021601500F051FD17E0DC
:1002C000F548844208D10121001500F049FD0021C4
:1002D000201500F045FD0BE0F048844208D10121D3
:1002E000C80300F03DFD00214FF4004000F038FD50
:1002F00010BD30B50246002000235068E84C204075
:100300000D790C6844EA0524204350609068E54C60
:100310002040D1E902542C434D7944EA450420435E
:100320009060D06A20F470000C7C641EE4B2234319
:1003300040EA0350D06230BD00210160017141717B
:100340008160C16001210174704721B1826842F06F
:100350000102826003E0826822F00102826070473D
:1003600021B1826842F48072826003E0826822F4E4
:1003700080728260704710B50023CBB21AB1446816
:100380001C43446002E044689C43446010BD8168A3
:1003900041F0080181607047014600208A6802F040
:1003A00008020AB1012000E000207047816841F096
:1003B000040181607047014600208A6802F004024F
:1003C0000AB1012000E00020704721B1826842F4A8
:1003D000A002826003E0826822F4A002826070477B
:1003E000014600208A6802F480020AB1012000E080
:1003F0000020704710B50A4600210023416821F40F
:100400006041531E41EA4331416010BD21B1426851
:1004100042F40062426003E0426822F400624260FB
:100420007047F0B504460D4600200021092D11DD6E
:10043000E068A5F10A0606EB4607072606FA07F16B
:100440008843A5F10A0606EB460603FA06F10843BF
:10045000E0600CE0206905EB4507072606FA07F186
:10046000884305EB450603FA06F108432061072A95
:100470000FDA606B561E06EB86071F2606FA07F199
:100480008843561E06EB860605FA06F108436063AC
:1004900022E00D2A0FDA206BD61F06EB86071F26F7
:1004A00006FA07F18843D61F06EB860605FA06F121
:1004B0000843206310E0E06AA2F10D0606EB860710
:1004C0001F2606FA07F18843A2F10D0606EB860601
:1004D00005FA06F10843E062F0BD21B1826842F4FA
:1004E0008012826003E0826822F48012826070478A
:1004F0000146C86C80B2704766484C30006870474F
:1005000021B1426842F48062426003E0426822F412
:1005100080624260704721B1426842F4805242607A
:1005200003E0426822F48052426070470A4600218C
:10053000816821F4E04111438160704721B18268F4
:1005400042F40042826003E0826822F4004282604A
:10055000704721B1826842F40212826003E082682F
:1005600022F4021282607047014600208A6802F479
:1005700000120AB1012000E000207047F0B50446E7
:100580001546002000220026092911DDE068A1F1AE
:100590000A0707EB470C072707FA0CF29043A1F173
:1005A0000A0707EB470703FA07F21043E0600CE085
:1005B000206901EB410C072707FA0CF2904301EB8D
:1005C000410703FA07F210432061A06BC0F3015604
:1005D000EF1C06F1010CA7EB0C0707EB870C1F279C
:1005E00007FA0CF29043EF1C06F1010CA7EB0C0785
:1005F00007EB870701FA07F21043A063F0BD10B5BF
:100600000A4600210023816B21F44011531E41EA68
:100610000351816310BD08B5002300930090009B37
:100620000B440093009B1A6008BD08B502460020E9
:100630000090009201F12800009B1844009000985F
:10064000006880B208BD0A4600214168164B194077
:100650001143416070474162826270470A4600213F
:10066000416821F01F0111434160704740B10949C1
:100670000831096841F40001064A0832116007E0B8
:1006800004490831096821F40001024A0832116066
:10069000704700000024014000280140003C014058
:1006A000FFFEF0FFFDF7F1FFFFFD3FFF02460020D8
:1006B00013680B400BB1012000E000207047CA43D3
:1006C0000260704770B502460020002300240B1220
:1006D0005568CEB205EA060415681D4015B10CB187
:1006E000012000E0002070BD00220A12D343036005
:1006F0007047000010B50446CC48844208D101215F
:10070000042000F02DFB0021042000F029FB46E02E
:10071000C748844208D10121082000F021FB0021B4
:10072000082000F01DFB3AE0C248844208D10121B4
:10073000102000F015FB0021102000F011FB2EE02E
:10074000BD48844208D10121202000F009FB00218E
:10075000202000F005FB22E0B848844208D10121A6
:10076000402000F0FDFA0021402000F0F9FA16E0E8
:10077000B348844208D10121802000F0F1FA002121
:10078000802000F0EDFA0AE0AE48844207D1012152
:10079000801500F0E5FA0021A01500F0E1FA10BD87
:1007A00010B50121084600F0DBFA0021012000F01D
:1007B000D7FA10BD2DE9F0410246002500260020A1
:1007C00000230024002791F803C00CF00F0591F8D6
:1007D00003C00CF0100CBCF1000F03D091F802C064
:1007E0004CEA050591F800C0BCF1000F31D0146847
:1007F00000202BE04FF0010C0CFA00F3B1F800C020
:100800000CEA03069E4220D183004FF00F0C0CFA35
:1008100003F7BC4305FA03FC4CEA040491F803C057
:10082000BCF1280F06D14FF0010C0CFA00FCC2F805
:1008300014C00AE091F803C0BCF1480F05D14FF095
:10084000010C0CFA00FCC2F810C0401C0828D1D3DF
:100850001460B1F800C0BCF1FF0F34DD5468002013
:100860002EE000F1080C4FF0010808FA0CF3B1F883
:1008700000C00CEA03069E4221D183004FF00F0C0A
:100880000CFA03F7BC4305FA03FC4CEA040491F8A4
:1008900003C0BCF1280F05D100F1080C08FA0CF8D0
:1008A000C2F8148091F803C0BCF1480F07D100F1E1
:1008B000080C4FF0010808FA0CF8C2F81080401C30
:1008C0000828CED35460BDE8F0814FF6FF71018057
:1008D000022181700421C170704702460020936894
:1008E0000B400BB1012000E00020704701468868F2
:1008F00080B2704702460020D3680B400BB1012044
:1009000000E0002070470146C86880B2704701616E
:100910007047416170470AB1016100E04161704771
:10092000C16070474FF480320A4382618161826105
:1009300082698269704702460020434B18684FF66F
:100940008073184040EA021008433F4B186070471C
:100950003E49C8617047F0B50A46002300240021D3
:10096000002500F00046B6F1004F02D1364EF16985
:1009700001E0354E7168C0F3034583B200F44016C0
:10098000B6F5401F08D121F070612F4E766826F031
:1009900070662D4F7E6012E000F48016B6F5801F61
:1009A00006D1032606FA05F4A14341F0706106E082
:1009B000460D360103FA06F6B14341F0706122B1EB
:1009C000460D360103FA06F6314300F00046B6F153
:1009D000004F02D11C4EF16101E01B4E7160F0BD71
:1009E00030B500228B071C0F0F2303FA04F2164BBD
:1009F00008338C1053F824309343134C08348D1073
:100A000044F8253023468C1053F824308C07240FEB
:100A100000FA04F423430C4C08348D1044F82530BC
:100A200030BD0A49DC310860704700000008014011
:100A3000000C01400010014000140140001801406A
:100A4000001C014000200140000001400000204245
:100A5000DF48006840F00100DD4908600846406852
:100A6000DC490840DA49486008460068DA4908402D
:100A7000D74908600846006820F4802008600846CE
:100A8000406820F4FE0048604FF41F008860704703
:100A9000CF49096821F48031CD4A116011460968B7
:100AA00021F480211160B0F5803F03D0B0F5802F94
:100AB0000ED106E0C649096841F48031C44A11608C
:100AC00007E0C349096841F4A021C14A116000E070
:100AD00000BF00BF704710B5014600220023002070
:100AE0004A11012A02D1BA4C236806E0022A02D137
:100AF000B74C236A01E0B64C636A01F01F0201247F
:100B000094401C400CB1012000E0002010BD38B51D
:100B1000002000900024002500BF3120FFF7DBFFFC
:100B200005460098401C00900098B0F5A06F01D0D9
:100B3000002DF2D03120FFF7CEFF08B1012400E0F4
:100B40000024204638BD01460020A14A106820F04C
:100B5000F80040EAC10010607047A0490860704783
:100B6000024600209A4B586820F47C1042EA0103A8
:100B70001843974B5860704798490866704701467C
:100B80000020934A506820F00300084350607047EB
:100B90008F48406800F00C007047014600208C4AE6
:100BA000506820F0F0000843506070470146002074
:100BB000874A506820F4E06008435060704701465F
:100BC0000020834A506820F4605040EAC100506021
:100BD000704729B17E4A527A02437D4B5A7204E033
:100BE0007B4A527A82437A4B5A7270477B49D8319A
:100BF0000860704701460020754A506820F4404064
:100C00000843506070470021714A20321170704AC9
:100C100082F82010012802D004280AD104E0012122
:100C20006B4A2032117005E00521694A20321170AB
:100C300000E000BF00BF7047694908607047644921
:100C4000096A0143624A1162704765494439086084
:100C5000704730B500210022002400235C4D6D68F0
:100C600005F00C0121B1042905D0082923D105E0A4
:100C70005C4D056022E05B4D05601FE0544D6D68E2
:100C800005F47012524D6D6805F48034022505EBB1
:100C900092421CB9544D554305600BE04C4D6D68B4
:100CA00005F400351DB1504D5543056002E04D4D32
:100CB0005543056002E04B4D056000BF00BF444D49
:100CC0006D6805F0F0010909484D6B5C0568DD4071
:100CD00045603F4D6D6805F4E061090A434D6B5C6A
:100CE0004568DD4085603A4D6D6805F46051C90A7C
:100CF0003E4D6B5C4568DD40C560354D6D6805F463
:100D00004041890B3A4D6B5CC568B5FBF3F5056155
:100D100030BD29B12E4A526902432D4B5A6104E07D
:100D20002B4A526982432A4B5A61704729B1284A9B
:100D300092690243264B9A6104E0254A92698243F4
:100D4000234B9A61704729B1214AD2690243204B53
:100D5000DA6104E01E4AD26982431D4BDA617047B2
:100D600029B11B4AD2680243194BDA6004E0184AE1
:100D7000D2688243164BDA60704729B1144A12696F
:100D80000243134B1A6104E0114A12698243104B6B
:100D90001A61704712494039086070470F49C864AA
:100DA00070470B49C87170470948406A40F080702D
:100DB00007494862704701460020054A92680A4088
:100DC0000AB1012000E00020704701498872704795
:100DD000001002400000FFF8FFFFF6FE0000424254
:100DE0008004424200127A0000093D000000002009
:100DF0001000002010B50446FE48844208D10121AD
:100E0000C014FFF7ADFF0021E014FFF7A9FFC4E015
:100E1000B4F1804F08D101210846FFF7AEFF002151
:100E20000120FFF7AAFFB8E0F348844208D101216E
:100E30000220FFF7A2FF00210220FFF79EFFACE097
:100E4000EE48844208D101210420FFF796FF0021DB
:100E50000420FFF792FFA0E0E948844208D1012175
:100E60000820FFF78AFF00210820FFF786FF94E0A3
:100E7000E448844208D101211020FFF77EFF0021C1
:100E80001020FFF77AFF88E0DF48844208D1012173
:100E90002020FFF772FF00212020FFF76EFF7CE08B
:100EA000DA48844208D101214014FFF759FF00219C
:100EB0006014FFF755FF70E0D548844209D1012145
:100EC000C804FFF74DFF00214FF40020FFF748FF53
:100ED00063E0D048844209D101210805FFF740FFB3
:100EE00000214FF48010FFF73BFF56E0CA488442D0
:100EF00009D101214805FFF733FF00214FF400100D
:100F0000FFF72EFF49E0C548844208D10121402067
:100F1000FFF733FF00214020FFF72FFF3DE0C048DF
:100F2000844208D101218020FFF727FF0021802083
:100F3000FFF723FF31E0BB48844208D1012180152F
:100F4000FFF71BFF0021A015FFF717FF25E0B648AC
:100F5000844209D101210804FFF702FF00214FF468
:100F60008030FFF7FDFE18E0B048844209D101212E
:100F70004804FFF7F5FE00214FF40030FFF7F0FEC4
:100F80000BE0AB48844208D101218804FFF7E8FE5A
:100F900000214FF48020FFF7E3FE10BD00220288FD
:100FA000944B98420ED0994B98420BD0B0F1804FA1
:100FB00008D0914B984205D0904B984202D0904B6C
:100FC000984204D14FF68F731A404B881A438D4BC9
:100FD000984207D08C4B984204D04FF6FF431A40FA
:100FE000CB881A4302808B8883850B880385814BCD
:100FF00098420BD0854B984208D08B4B984205D035
:101000008A4B984202D08A4B984201D10B7A0386D0
:1010100001238382704770B5002400220023058CD1
:101020004FF6FE7635400584028C8388048B4FF69C
:101030008F752C40B51E2C400D882C43751E2A4000
:101040000D892A434D882A436A4DA8420BD06F4D23
:10105000A84208D0744DA84205D0744DA84202D0D1
:10106000734DA84213D14FF6F7752A404D892A4394
:101070004FF6FB752A408D882A434FF6FF652B40BB
:101080004FF6FF552B408D892B43CD892B43838011
:101090000483CD888586028470BD70B5002400224B
:1010A0000023058C4FF6EF7635400584028C83884B
:1010B000048B48F6FF752C404FF6FF452C400D88F9
:1010C0004FF6FF7606EA05252C434FF6DF752A40DA
:1010D0000D8906EA05152A434D8806EA05152A43B7
:1010E000444DA84202D0494DA8421DD14FF67F750C
:1010F0002A404D894FF6FF7606EA05152A434FF63A
:10110000BF752A408D8806EA05152A434FF6FF353C
:101110002B404FF2FF752B408D8906EA85052B4346
:10112000CD8906EA85052B4383800483CD88058716
:10113000028470BD70B5002400220023058C4FF698
:10114000FF6635400584028C8388848B4FF68F754B
:101150002C404FF6FC752C400D882C434FF6FF5564
:101160002A400D894FF6FF7606EA05252A434D8869
:1011700006EA05252A431F4DA84202D0234DA84266
:101180001DD14FF2FF752A404D894FF6FF7606EAD2
:1011900005252A434FF6FF352A408D8806EA0525A6
:1011A0002A434EF6FF752B404DF6FF752B408D8977
:1011B00006EA05152B43CD8906EA05152B438380E6
:1011C0008483CD888587028470BD70B5002200239A
:1011D0000024058C4EF6FF7635400584038C848808
:1011E000828B48F6FF752A404FF6FF452A400D884E
:1011F00020E00000002C01400004004000080040F6
:10120000000C004000100040001400400034014079
:10121000004C0140005001400054014000180040C3
:10122000001C0040002000400040014000440140FC
:10123000004801404FF6FF7606EA05252A434DF6A1
:10124000FF752B400D8906EA05352B434D8806EACC
:1012500005352B43FA4DA84202D0FA4DA84208D1D9
:101260004BF6FF752C408D894FF6FF7606EA851503
:101270002C4384808283CD88A0F84050038470BDC5
:10128000828B4FF2FF331A408283828B4FF6FF73BB
:1012900003EA01231A4382837047F0B50C461546D2
:1012A000002200210026078C4EF6FF7C07EA0C077F
:1012B0000784828B018C4FF6FF7707EA043640F6ED
:1012C000FF473A404FF6FF7707EA05273A434FF6C4
:1012D000FF7707EA03373A43D94FB8420ED0D94FC8
:1012E000B8420BD0B0F1804F08D0D74FB84205D0EC
:1012F000D64FB84202D0D64FB84206D14DF6FF774E
:10130000394046F48057394305E047F6FF573940E6
:1013100044F48057394382830184F0BD828B4FF6B9
:10132000F3731A408283828B0A4382837047F0B53D
:101330000C461546002200210026078C4FF6FF6C54
:1013400007EA0C070784828B018C4FF6FF7707EAC8
:1013500004264FF60C773A404FF6FF7707EA03175B
:101360002F433A43B64FB8420ED0B64FB8420BD0D7
:10137000B0F1804F08D0B44FB84205D0B34FB84257
:1013800002D0B34FB84206D14FF6FF57394046F46A
:101390008077394305E04FF2FF57394044F48077B6
:1013A000394382830184F0BD028B4FF2FF331A4030
:1013B0000283028B4FF6FF7303EA01231A43028371
:1013C0007047F0B50C461546002200210026078C18
:1013D0004FF6EF7C07EA0C070784028B018C4FF66F
:1013E000FF7707EA041640F6FF473A404FF6FF77CB
:1013F00007EA03373A434FF6FF7707EA05273A43F0
:101400008F4FB8420ED08F4FB8420BD0B0F1804F03
:1014100008D08D4FB84205D08C4FB84202D08C4FC7
:10142000B84206D14FF6DF77394046F0100739430E
:1014300005E04FF65F77394044F0100739430283E7
:101440000184F0BD028B4FF6F3731A400283028BC6
:101450000A4302837047F0B50C461546002200216E
:10146000068C4FF6FE773E400684028B018C4FF6C9
:101470000C7632407E1C06EA03162E433243704E31
:10148000B0420ED06F4EB0420BD0B0F1804F08D0BA
:101490006D4EB04205D06D4EB04202D06C4EB0429F
:1014A00006D14FF6FD76314044F00106314305E0A8
:1014B0004FF6F576314044F0010631430283018452
:1014C000F0BD70B505460C465D4885420ED05D48BE
:1014D00085420BD0B5F1804F08D05B48854205D0DE
:1014E0005A48854202D05A48854200D100E000BFE8
:1014F000208850B92389A28861882846FFF7ABFF6E
:10150000E1882846FFF79EFF25E0208804280AD1BD
:101510002389A28861882846FFF753FFE18828467F
:10152000FFF742FF17E0208808280AD12389A28804
:1015300061882846FFF7FBFEE1882846FFF7EEFEAC
:1015400009E02389A28861882846FFF7A6FEE18882
:101550002846FFF795FE70BD2DE9F04105460C4683
:1015600000260127608808B9022600E00026A0882E
:10157000012801D1022700E001272088A0B9238992
:10158000A28861882846FFF766FFE1882846FFF7B2
:1015900059FF23893A4631462846FFF712FFE18872
:1015A0002846FFF701FF13E02389A28861882846B7
:1015B000FFF707FFE1882846FFF7F6FE23893A4642
:1015C00031462846FFF747FFE1882846FFF73AFFF4
:1015D000BDE8F0810A884B881A438B881A43CB8870
:1015E0001A430B891A434B891A438B891A43A0F873
:1015F000442070474FF6FF71818000210180C18037
:101600004180017270470021018041808180C1804A
:10161000018141818181C181704700210180418028
:10162000012181800021C18001817047002101805A
:1016300041808180C18001814181818170470000AA
:10164000002C01400034014000040040000800402C
:10165000000C004021B1028842F00102028004E047
:1016600002884FF6FE731A400280704731B1B0F81D
:10167000442042F40042A0F8442005E0B0F84420A1
:10168000C2F30E02A0F8442070471AB183890B43BD
:10169000838102E083898B43838170478182704715
:1016A00041EA0203A0F8483070471AB183890B431E
:1016B000838102E083898B438381704701894FF6E0
:1016C000F8721140018170470A46002101894FF6E6
:1016D0008F73194011430181704730B504460D46A0
:1016E00029462046FFF7F0FF208940F007002081BF
:1016F00030BD2DE9F04104460D4616461F46602DCB
:1017000006D13B46012231462046FFF75AFE05E04E
:101710003B46012231462046FFF79DFE29462046E2
:10172000FFF7D2FF208940F007002081BDE8F0815B
:1017300030B50C4600210189C9B24FF6FF7505EAA4
:101740000325154325432943018130BD2DE9F0418F
:1017500005460E4617469846002443463A4631460B
:101760002846FFF7E5FF2C894FF6F870044044F057
:1017700007044FF68F70044044F070042C81BDE8DC
:10178000F081F0B504460D4616461F463B463246EC
:1017900029462046FFF7CCFF208940F48040208175
:1017A000F0BD0185828270470A46002101884FF60C
:1017B0008F731940114301807047F0B50C461546F0
:1017C0001E460021002200230189028B038C4FF664
:1017D000F877394021434FF6FC473A4040F2011771
:1017E0003A434FF6DD773B404FF6FF7707EA06179F
:1017F0002F433B43018102830384F0BD0A4600214D
:10180000018B4FF68F7319401143018370470A46CD
:101810000021018B48F6FF7319404FF6FF7303EA6E
:1018200002231943018370470A460021818B4FF63A
:101830008F7319401143818370470A460021818BC1
:1018400048F6FF7319404FF6FF7303EA022319436A
:101850008183704721B1028842F08002028004E057
:1018600002884FF67F731A400280704721B1828848
:1018700042F00402828004E082884FF6FB731A4033
:101880008280704721B1828842F00802828004E0A1
:1018900082884FF6F7731A408280704721B18288A0
:1018A00042F00102828004E082884FF6FE731A4003
:1018B000828070470A460021018B4FF6F77319406A
:1018C0001143018370470A460021018B4FF2FF73D9
:1018D00019404FF6FF7303EA02231943018370474F
:1018E0000A460021818B4FF6F7731940114381831B
:1018F00070470A460021818B4FF2FF7319404FF663
:10190000FF7303EA02231943818370470A460021CB
:10191000018B4FF6FB7319401143018370470A4650
:101920000021018B4FF6FF3319404FF6FF7303EA96
:1019300002231943018370470A460021818B4FF629
:10194000FB7319401143818370470A460021818B44
:101950004FF6FF3319404FF6FF7303EA0223194392
:10196000818370470A460021018B4FF67F7319402F
:101970001143018370470A460021018BC1F30E0118
:101980004FF6FF7303EA02231943018370470A46A7
:101990000021818B4FF67F7319401143818370477B
:1019A0000A460021818BC1F30E014FF6FF7303EA53
:1019B00002231943818370470A460021018C4FF6A8
:1019C000FD7319401143018470470A460021018CC0
:1019D0004FF6F77319401143018470470A460021FE
:1019E000018C4FF6DF7319404FF6FF7303EA0213C1
:1019F0001943018470470A460021018C4FF67F731A
:101A000019404FF6FF7303EA02131943018470472C
:101A10000A460021018C4FF6FF5319404FF6FF7321
:101A200003EA02231943018470470A460021018C0E
:101A30004FF2FF7319404FF6FF7303EA0223194375
:101A4000018470470A460021018C4DF6FF7319404E
:101A50004FF6FF7303EA023319430184704730B530
:101A6000002301248C40A3B2048C9C430484048C86
:101A700002FA01F5ADB22C43048430BD30B5002329
:101A800004248C40A3B2048C9C430484048C02FA8A
:101A900001F5ADB22C43048430BD70B5034600207F
:101AA00000241846183001258D40ACB21D8CA5438A
:101AB0001D8409B1082909D100EB6100056825F0F2
:101AC000700505600568154305600EE00D1FC5F340
:101AD0004E052844056825F4E045056005684FF685
:101AE000FF7606EA02263543056070BD21B1028803
:101AF00042F00202028004E002884FF6FD731A40B1
:101B00000280704721B1028842F00402028004E0A2
:101B100002884FF6FB731A400280704721B1828819
:101B200042F08002828004E082884FF67F731A4080
:101B30008280704702884FF6F7731A40028002884D
:101B40000A430280704782884FF68F731A40828062
:101B500082880A438280704702894FF6F8731A40E0
:101B6000028102890A430281704702894FF67F731E
:101B70001A40028102890A430281704781847047BA
:101B800081857047818670470187704781877047DC
:101B9000A0F84010704702884FF6FF431A400280B9
:101BA00002880A43028070470146888E70470146CA
:101BB000088F70470146888F70470146B1F8400092
:101BC00070470146888C70470146088D7047024671
:101BD0000020138A0B400BB1012000E00020704769
:101BE000CA430282704730B5024600200023002419
:101BF000158A05EA0103958905EA010413B10CB1C0
:101C0000012000E0002030BDCA430282704700007E
:101C100010B50446FB48844209D101218803FFF72F
:101C20009FF800214FF48040FFF79AF832E0F64821
:101C3000844209D101214804FFF79FF800214FF4A5
:101C40000030FFF79AF825E0F048844209D10121DD
:101C50008804FFF792F800214FF48020FFF78DF8F9
:101C600018E0EB48844209D10121C804FFF785F848
:101C700000214FF40020FFF780F80BE0E548844294
:101C800008D101210805FFF778F800214FF48010F2
:101C9000FFF773F810BD2DE9F04786B005460E46F4
:101CA0000024A24600BFA1460027B08900B100BFB2
:101CB0002F462C8A4CF6FF700440F08804432C8297
:101CC000AC894EF6F3100440B0883189084371891D
:101CD00008430443AC81AC8A4FF6FF400440B0890E
:101CE0000443AC8201A8FEF7B4FFC648874202D184
:101CF000DDF810A001E0DDF80CA0A88900F4004098
:101D000040B10AEBCA0000EB0A1031684900B0FB91
:101D1000F1F807E00AEBCA0000EB0A10316889000D
:101D2000B0FBF1F86420B8FBF0F004012009642155
:101D300001FB1089A88900F4004040B1322000EB7B
:101D4000C900B0FBF1F000F00700044308E03220C6
:101D500000EB09106421B0FBF1F000F00F00044328
:101D60002C8106B0BDE8F0874FF4165101600021C8
:101D70008180C18001810C214181002181817047D6
:101D800010B502460020108A4FF2FF0318400B885E
:101D90004C8823438C882343CC88234318431082E8
:101DA00010BD0021018041808180C180704721B138
:101DB000828942F40052828104E082894DF6FF73E9
:101DC0001A4082817047F0B50346002400260025A2
:101DD000002040F66A17B94200D100BF1846C1F38F
:101DE000421401F01F06012707FA06F5012C01D164
:101DF0000C3004E0022C01D1103000E014301AB194
:101E000007682F43076002E00768AF430760F0BD33
:101E10001AB1838A0B43838202E0838A8B438382D5
:101E20007047028A4FF6F0731A400282028A0A4310
:101E30000282704782894FF2FF731A408281828941
:101E40000A438281704721B1828942F00202828175
:101E500004E082894FF6FD731A4082817047028A3E
:101E60004FF6DF731A400282028A0A4302827047E9
:101E700021B1028A42F48042028204E0028A4BF6D7
:101E8000FF731A4002827047C1F3080282807047D4
:101E900001468888C0F308007047818941F001013C
:101EA00081817047028BD2B20283028B42EA012207
:101EB00002837047028B02F47F420283028B0A4343
:101EC0000283704721B1828A42F02002828204E0BC
:101ED000828A4FF6DF731A408282704721B1828A6C
:101EE00042F01002828204E0828A4FF6EF731A40B9
:101EF0008282704721B1828A42F00802828204E025
:101F0000828A4FF6F7731A408282704721B1828924
:101F100042F40042828103E08289C2F30E02828190
:101F2000704721B1828A42F40062828204E0828A90
:101F30004FF2FF731A4082827047828A4FF6FB731A
:101F40001A408282828A0A438282704721B1828A41
:101F500042F00202828204E0828A4FF6FD731A4048
:101F60008282704702460020B1F5007F00D100BF99
:101F700013880B400BB1012000E00020704701F4F2
:101F80000072B2F5007F00D100BFCA4302807047E3
:101F900070B50246002400230025002040F66A1692
:101FA000B14200D100BFC1F3421501F01F03012669
:101FB00006FA03F3012D02D19689334006E0022D83
:101FC00002D1168A334001E0968A33400C12012672
:101FD00006FA04F41688344013B10CB1012000E075
:101FE000002070BD10B50022002340F66A14A14203
:101FF00000D100BF0A1201249440A3B2DC43048044
:1020000010BD00000038014000440040004800407E
:10201000004C00400050004010B58448006848B9AA
:102020000A2000F02FFA8148006808B9012010BD8D
:102030000020FCE70020FAE72DE9F04107460D46B5
:10204000164600F00EFF682000F090FF00F06CFFD5
:10205000012804D100F01CFF0120BDE8F0813846C2
:1020600000F084FF00F060FF012803D100F010FFB2
:102070000120F2E700F0F5FE692000F077FF00F0A4
:1020800053FF012803D100F003FF0120E5E70024FE
:102090000DE0701EA04204D0012000F08DFF2855F5
:1020A00003E0002000F088FF2855601CC4B2B44251
:1020B000EFDB00F0EDFE0020CFE72DE9F041054613
:1020C0000E46174600F0CDFE682000F04FFF00F0EE
:1020D0002BFF012804D100F0DBFE0120BDE8F081D8
:1020E000E8B200F043FF00F01FFF012803D100F029
:1020F000CFFE0120F2E700240CE0305D00F036FF57
:1021000000F012FF012803D100F0C2FE0120E5E734
:10211000601CC4B2BC42F0DB00F0BAFE0020DDE778
:1021200000F015F94FF4A060FEF74EF8482000F0DB
:102130008FF900F0CFFB00F07BFE00F005FE00F011
:1021400060FCC82000F09EF9042239491420FFF7F2
:10215000B4FF052000F096F9012236491520FFF75B
:10216000ACFF052000F08EF95EE04FF47A7000F0CD
:1021700089F955E030480078401C2F49087008461E
:102180000078042801DD0020087000202749BC31B8
:1021900008604FF47A7000F075F901202749C1F802
:1021A000BC0100F0E3FB24480078052836D2DFE8C4
:1021B00000F0030D17212B00022221493320FFF7E5
:1021C0007CFF4FF4E16000F05DF928E002221D4938
:1021D0003320FFF772FF4FF4E16000F053F91EE087
:1021E000022219493320FFF768FF4FF4E16000F045
:1021F00049F914E0022215493320FFF75EFF4FF43E
:10220000E16000F03FF90AE0162211493320FFF7A0
:1022100054FF4FF4E16000F035F900E000BF00BF6B
:10222000FFF7FAFE0028A5D19FE700000001224237
:102230002C0000202B0000202D0000200000224256
:10224000170000201B0000201F000020230000209A
:1022500027000020704700BFFEE700BFFEE700BF79
:10226000FEE700BFFEE77047704770477047000009
:102270000CB50020019000906C48006840F480305C
:102280006A49086000BF6948006800F400300090A7
:102290000198401C0190009818B90198B0F5A06F02
:1022A000F1D16248006800F4003010B101200090C4
:1022B00001E0002000900098012843D15C480068AC
:1022C00040F010005A4908600846006820F00300FA
:1022D00008600846006840F0020008605348406803
:1022E000524948600846406848600846406840F4E3
:1022F000806048600846406820F47C1048600846CA
:10230000406840F4E81048600846006840F080707B
:10231000086000BF4548006800F000700028F9D050
:102320004248406820F00300404948600846406841
:1023300040F00200486000BF3C48406800F00C00DC
:102340000828F9D10CBD10B5FFF792FF10BD10B5EC
:102350003648006840F0010034490860084640688B
:10236000344908403149486008460068324908400D
:102370002E4908600846006820F48020086008465E
:10238000406820F4FE0048604FF41F008860FFF7AB
:10239000DAFF4FF000602949086010BD10B5002138
:1023A00000200022214B5B6803F00C0121B10429BD
:1023B00006D0082928D107E0214B224C236027E0D2
:1023C0001F4B204C236023E0184B5B6803F4701014
:1023D000164B5B6803F48032022303EB904022B972
:1023E000194B4343174C23600DE0104B5B6803F41B
:1023F000003323B1144B4343124C236003E0104BD2
:102400004343104C236003E00D4B0E4C236000BF90
:1024100000BF064B5B68C3F303130C4CE15C094B34
:102420001B68CB40074C236010BD00000010024029
:10243000002002400000FFF8FFFFF6FE08ED00E07C
:1024400000127A003000002000093D003400002016
:1024500010B504466FF00400FDF705FFE11704EB2B
:102460005171C1F3C701234A11701046007800EB87
:102470004001C1EBC0104FF6FF7101EAC0001E49D8
:10248000088010BD01461C4A12884A434FF0E023E1
:102490005A6100229A6101221A6100BF4FF0E022C6
:1024A000106900F001021AB100F48032002AF5D060
:1024B00000224FF0E0231A619A61704701460D4AED
:1024C00012784A434FF0E0235A6100229A610122B8
:1024D0001A6100BF4FF0E022106900F001021AB14A
:1024E00000F48032002AF5D000224FF0E0231A6178
:1024F0009A617047440000204600002010B5002873
:1025000000DCC0B9072816DCB1F5FA7F13DB40F612
:10251000C41399420FDC142A00DA142247F2305314
:102520009A4200DD1A46DB4B23F81010DA4B1A8072
:102530000123DA4C237010BD70B5D848007800280C
:1025400048D00020D5490870D3480088142190FB5A
:10255000F1F0D3490880002437E0CE4830F8140069
:10256000D04931F81410884213DDCA4931F81410EB
:10257000CC4A32F81420881A00F03AFFCA4941F8D0
:102580002400084650F8240080F0004041F8240060
:102590000BE0C44931F81410BE4A32F81420881AEE
:1025A00000F026FFC04941F82400BD48008800F033
:1025B00037FF0546BC4951F82400294600F03AFE91
:1025C000B94941F82400601CC4B2082CC5DB0120C5
:1025D000B6490870B548007860B3B1480088401E1D
:1025E000AF490880002423E0AD48008848B9A948D5
:1025F00030F81400AB4921F814000020AB490870F2
:1026000014E0A748008800F00BFF0646A64850F8E3
:102610002410304600F018FF054600F0CDFE9D491D
:1026200031F8141008449F4921F81400601CC4B20A
:10263000082CD9DB70BD08B59D48C06940F0020088
:102640009B49C86142F20F709A4908804720091FD0
:10265000088098482038008840F0010095492039CA
:10266000088094482C38008840F0010091492C39AA
:1026700008801D208DF8000000208DF80100032047
:102680008DF8020001208DF803006846FDF7A1FDDA
:1026900008BD08B5FFF7CFFF01210820FEF746FB74
:1026A0004FF49070ADF8000010208DF80300032067
:1026B0008DF8020069468048FEF77CF80121102061
:1026C000FEF734FB4FF4E050ADF8000010208DF819
:1026D000030003208DF8020069467848FEF76AF887
:1026E00001212020FEF722FB0420ADF8000010207D
:1026F0008DF8030003208DF8020069467048FEF74C
:1027000059F808BD411C6B4A1180704700B56948F3
:102710001C38008800F00100002870D0694800884B
:1027200011280ED2DFE800F0A7090E171F2B344145
:102730004A575F6C748089969B005A490888FFF756
:10274000E1FF98E05749098840F6C412511A88B24F
:10275000FFF7D8FF8FE001205B49086051494888A6
:10276000FFF7D0FF87E00020574908604D494988AE
:1027700040F6C412511A88B2FFF7C4FF7BE0012073
:102780005149091D086047498888FFF7BBFF72E07F
:1027900000204D49091D08604249898840F6C4124D
:1027A000511A88B2FFF7AEFF65E0012046490831B3
:1027B00008603C49C888FFF7A5FF5CE0002042495B
:1027C000083108603749C98840F6C412511A88B2E6
:1027D000FFF798FF4FE001203C4908603149088924
:1027E000FFF790FF47E00020384908602D4909892C
:1027F00040F6C412511A88B2FFF784FF3BE040E074
:1028000001203349086027494889FFF77BFF32E000
:1028100000202F4908602349498940F6C412511A03
:1028200088B2FFF76FFF26E0012029490C310860CC
:102830001C498889FFF766FF1DE0002024490C3100
:1028400008601849898940F6C412511A88B2FFF706
:1028500059FF10E01349C889FFF754FF0BE01149F5
:10286000C98940F6C412511A88B2FFF74BFF002005
:102870001449088000BF00BF12480088401C11495D
:1028800008800C481C38008820F0010009491C39D8
:10289000088000BD580000206A0000206800002069
:1028A0006C000020480000209C0000206E000020EA
:1028B000001002402C040040000C014000100140B8
:1028C0000014014070000020A801224288812242A9
:1028D000948121421FB501210846FEF734FA0920F0
:1028E000ADF8040040F2CF20ADF800000020ADF8B4
:1028F0000600ADF8020069464FF08040FEF74EFB3F
:10290000012241218807FEF7C0FE01218807FEF75A
:10291000A1FE1C208DF80C0002208DF80D00032074
:102920008DF80E0001208DF80F0003A8FDF751FC73
:102930001FBD10B500F001F900F096F901218807DC
:10294000FFF751F988B101218807FFF75DF91E48AB
:102950000068401C1C4908600A2806D30020086053
:102960001A480068401C1949086010BD10B5174886
:10297000006817490968884224D916480068401C35
:10298000144908600020114908601248007800F0DE
:10299000010008B9FFF7D0FD0E4800683221B0FBF6
:1029A000F1F201FB120068B900F0B0F800F0C2F8D3
:1029B000B0F5C85F03DA01200749087002E0002083
:1029C0000549087010BD0000780000207400002048
:1029D0007C000020800000208400002008B5012138
:1029E0001020FEF7A3F90120ADF8000048208DF873
:1029F000030003208DF8020069467148FDF7DAFEF6
:102A000008BD08B501211020FEF790F94FF40040F1
:102A1000ADF8000010208DF8030003208DF80200AF
:102A200069466748FDF7C6FE08BD08B501211020BC
:102A3000FEF77CF94FF40070ADF8000010208DF81F
:102A4000030003208DF8020069465D48FDF7B2FEE1
:102A500008BD00B587B001214FF40470FEF766F998
:102A60004FF40040FEF7C6F80820ADF8040000203F
:102A70008DF8070001A95248FDF79CFE5148FDF76B
:102A800011FC002002908DF80C008DF80D004FF421
:102A9000602004900020059001208DF8180002A904
:102AA0004848FDF726FC01214648FDF74EFC454805
:102AB000FDF76DFC00BF4348FDF76EFC0028FAD11E
:102AC0004048FDF773FC00BF3E48FDF774FC00284A
:102AD000FAD101213B48FDF778FC07B000BD10B5E5
:102AE00004460723012221463648FDF79AFC0121BE
:102AF0003448FDF76AFC00BF02213248FDF7D6FDDD
:102B00000028F9D02F48FDF7F3FC10BD70B5002464
:102B1000002505E00D20FFF7E2FF0444681CC5B264
:102B2000082DF7DBE40840F6AB106043840A264921
:102B30000C8070BD2448008870472448007888B114
:102B400023480068401C2249086002280DD3002059
:102B500008602048006808B9012000E000201D49F5
:102B6000086002E000201B4908601B48007828B973
:102B7000002016490870194908601FE016480078BF
:102B800001281BD115480068401C144908600846FC
:102B9000006841F28831884203D201200B49087055
:102BA0000CE00E48006842F21071884203D2002007
:102BB0000649087002E000200849086070470000DC
:102BC0000010014000240140860000208800002001
:102BD0008C000020A40122428400002090000020EC
:102BE00008B501210420FEF7A1F8F020ADF800009F
:102BF00010208DF8030003208DF80200694641483B
:102C0000FDF7D8FD08BD002805DB01223E4B1A70F8
:102C10003E4A107006E000223B4B1A70424252B20C
:102C20003A4B1A70002905DB0122394B1A70394AD8
:102C3000117006E00022364B1A704A4252B2354BF0
:102C40001A70324A92F900200A2392FBF3F252B230
:102C50002E4B1A702F4A92F900200A2392FBF3F2AE
:102C600052B22C4B1A7070472B480078274991F9C3
:102C70000010884212DA2448007838B10120274930
:102C8000086000202649C1F894010DE00020234986
:102C9000086001202249C1F8940105E000201F4985
:102CA00008601F49C1F894011B480078194991F93F
:102CB0000010884214DA1648007840B10120174904
:102CC0000831086000201649C1F89C010FE000207F
:102CD00012490831086001201149C1F89C0106E041
:102CE00000200E49083108600D49C1F89C010A48CE
:102CF0000078401CC0B2084908700A2801DB002097
:102D000008707047000801409600002094000020E1
:102D1000970000209500002098000020900121429B
:102D20000000214200BF704770B504460D46E1B275
:102D30002D48FFF7A9F800BF40212B48FFF712F9F3
:102D40000028F9D0204670BD00B587B0012144F2BB
:102D50000500FDF7EBFF4FF40070ADF81400032001
:102D60008DF8160018208DF8170005A91F48FDF7EB
:102D700021FD4FF48060ADF8140048208DF8170055
:102D800005A91A48FDF716FD4FF4165001900020D2
:102D9000ADF80800ADF80A00ADF80C00ADF8100071
:102DA0000C20ADF80E0001A90F48FEF774FF0122B8
:102DB00040F225510C48FFF706F801210A48FEF7BA
:102DC000F6FF25208DF8180001208DF8190000204D
:102DD0008DF81A0001208DF81B0006A8FDF7F9F9FF
:102DE00007B000BD704700000038014000080140F6
:102DF00008B54FF48050ADF8000003208DF80200B4
:102E000010208DF8030069468048FDF7D3FC08BD0B
:102E100008B54FF48050ADF8000003208DF8020093
:102E200048208DF8030069467848FDF7C3FC08BDCB
:102E300008B501210820FDF779FF41F20200ADF845
:102E4000000010208DF8030003208DF80200694671
:102E50006E48FDF7AFFC41F202016C48FDF757FDEB
:102E600008BD10B5FFF7C4FF012069490860694932
:102E7000C1F884010520FFF721FB002064490860A8
:102E80000520FFF71BFB00206249C1F8840110BD3B
:102E900010B5FFF7ADFF00205D492C3908605D4992
:102EA000C1F8B0010520FFF709FB012058492C3972
:102EB00008605849C1F8B0010520FFF7FFFA10BDBE
:102EC00010B5002052492C390860FFF791FF00200F
:102ED0005049C1F8B0010220FFF7F0FA01204C4937
:102EE0002C3908600220FFF7E9FA00204949C1F8AF
:102EF000840110BD10B5002045492C390860FFF74A
:102F000077FF01204349C1F8B0010220FFF7D6FA4C
:102F100001203F492C3908600220FFF7CFFA00203A
:102F20003C49C1F8840110BD10B50024FFF770FFC3
:102F3000012037490860FFF7C1FA01203549C1F87F
:102F40008401FFF7BBFA07E0601CC4B2FA2C03DD72
:102F5000FFF79EFF012010BD2D4880380068002833
:102F6000F2D12B492C39086000BFF4E770B5044654
:102F70000025FFF73DFF002025492C39086000BFE0
:102F800017E0E009224908606006040E0220FFF7FE
:102F900095FA01201F49C1F884010220FFF78EFA3B
:102FA00000201B492C3908600220FFF787FA681CB3
:102FB000C5B2082DE5DB70BD70B5054600260024BE
:102FC000FFF726FF00BF17E0002011492C390860E9
:102FD0000220FFF773FA01200E49C1F88401600650
:102FE000040E0B488038006808B1601CC4B2012090
:102FF000FFF764FA701CC6B2082EE5DB15B9FFF7BF
:1030000079FF01E0FFF75CFF204670BD000C014036
:10301000B08121420080214200B587B001214804DF
:10302000FDF791FE01210520FDF780FE0420ADF89B
:10303000140003208DF8160018208DF8170005A93C
:103040005E48FDF7B7FB0820ADF8140048208DF866
:10305000170005A95948FDF7ADFB4FF4E130019089
:103060000020ADF80800ADF80A00ADF80C00ADF88E
:1030700010000C20ADF80E0001A95148FEF70BFE20
:10308000012240F225514E48FEF79DFE01214C4899
:10309000FEF78DFE27208DF8180001208DF819000D
:1030A00002208DF81A0001208DF81B0006A8FDF7FC
:1030B00090F807B000BD08B5FFF7AEFF012104206E
:1030C000FDF734FE0320ADF8000010208DF803005A
:1030D00003208DF8020069463848FDF76BFB00209D
:1030E0003849086001203849C1F8840108BD10B58D
:1030F0000246002012E000BF314B1B8803F0400362
:10310000002BF9D0135C2E4C241D238000BF2C4BC8
:103110001B8803F04003002BF9D0401C8842EAD3FF
:1031200010BD10B540F225512548FEF731FF10BD06
:103130002DE9F04785B081460E461746984604258E
:103140004FF0000A012E01D1072500BF00BF552016
:103150008DF800008DF801008DF802908DF8035075
:103160008DF80460F8B28DF8050038128DF806006D
:1031700008F0FF008DF807004FEA28208DF80800BE
:10318000022403E01DF804008244641C681C84428D
:10319000F8D96FEA0A00C1B2A81C0DF8001000208F
:1031A0000849086001200849C1F88401E91C684603
:1031B000FFF79DFF05B0BDE8F08700000008014063
:1031C00000440040800121420000214270477047C6
:1031D000704770477047754600F028F8AE46050006
:1031E0006946534620F00700854618B020B5FCF725
:1031F000D9FFBDE820404FF000064FF000074FF028
:1032000000084FF0000B21F00701AC46ACE8C00904
:10321000ACE8C009ACE8C009ACE8C0098D4670470D
:103220000446AFF300802046FCF7A7FF0048704734
:10323000BC0000204FF47F0C1CEAD0121EBF1CEA19
:10324000D11392EA0C0F93EA0C0F00F0858090EAFC
:10325000010F48BF42F4807240F4000C41F40000BA
:103260002CF07F4120F07F4000B58142A2EB0302A9
:103270000FF2081CACEB504EC0F100009EF800E0CD
:103280004FEA4E0E00FB0EFC38BF49004FEA2C1CE3
:1032900002F5FA020CFB0EF34FEACE1E4FEA112C98
:1032A0004FEAC1210EEB635E42EB22420EFB0CFCA7
:1032B0004FEA1C5300FB03114FEA112C4FEA013176
:1032C0000EFB0CFC4FEADC4C00FB0C11C14228BF8A
:1032D00009184CEB03335DF804EB10EB410143EBB1
:1032E000C250B2F57C0F38BF704729D512F0F00FED
:1032F0001CBF00F1C04000F0004070470081828395
:103300008485868788898B8C8D8E8F9192939596F4
:1033100097999A9C9D9FA0A2A3A5A7A8AAACAEB07E
:10332000B2B3B5B7B9BCBEC0C2C5C7C9CCCED1D483
:10333000D7D9DCDFE2E6E9ECF0F3F7FAFE000000B3
:103340004FEA400C0CF1807CBCF17E4F28BF7047E7
:10335000B0F1C04000F03FB990EA010F0CEAD11380
:1033600048BF42F48072624538BF634507D213F408
:103370007F0F16D080EA010000F00040704710B5C2
:1033800000F0E3F8097EFC3E00F005B880EA010099
:1033900000F00040704780EA010000F0004000F0BB
:1033A0001AB912F47F0F04BF0248704780EA010087
:1033B00000F011B90000C07F41000B0ED3F19E0256
:1033C00008D950F400034FEA032323FA02F048BF60
:1033D0004042704710B500F0B8F800BF4992248011
:1033E000002070476FF0004282EA20007047000022
:1033F00010F0004148BF4042B0FA80F310FA03F2E7
:10340000C3F19D030BD051EAC35101EB12205306C7
:1034100038BF704700F1010008BF20F0010070477D
:10342000B0FA80F310FA03F2C3F19D030AD0D90574
:1034300001EB1220530638BF704700F1010008BFAE
:1034400020F00100704700004FF47F0C1CEAD012FE
:103450001EBF1CEAD11392EA0C0F93EA0C0F00F086
:10346000478090EA010F48BF42F480724FF0004C51
:103470004CEA00204CEA012102EB0302A0FB0113FD
:10348000A2F50002002918BF43F001035B0028BF2A
:103490004FEA330342EB22425FEA132C4CEBC2505B
:1034A0002EBFBCEB436FB2F57C0F70474FEA036C45
:1034B000BCF1004F08BF20F00100B2F57C0F38BF0F
:1034C00070470BD582F0FF0212F5803FC8BF7047EE
:1034D00000F1C040D8BF00F00040704700F5000C7C
:1034E0005FEA4C0C48BF7047B0F1C04000F073B8C1
:1034F00090EA010F0CEAD11348BF42F48072624592
:1035000038BF634504D280EA010000F000407047F4
:1035100010B500F01AF800BF8900013E00F007B8AE
:1035200000F009B85FEA410C5FEA1C6C08D080EA41
:10353000010000F050B85FEA400C5FEA1C6CF6D165
:103540004FF00040A0F5800070470EF1020E2EF003
:10355000030E5EF8044B244204D44FEA4102B2F158
:103560007F4F11D84FEA4003B3F17F4F0CD80ED1F3
:103570004FEAD07CB2F17F4F0CEB4C0C0CF1020CFB
:1035800008BF4CEBD17C04E04FF0080C01E04FEA9F
:10359000D17C0CEB4C0324FA03F404F00704B4F1DF
:1035A000040C06D20EEB840CBDE810404CF0010C6C
:1035B0006047DFE80CF0070802024FF00040A0F57A
:1035C000800010BD0846420018BFD2F1807288BF4B
:1035D00000F0004010BDFF2141EAD050C005704707
:1035E00000360008000000209C00000028010008B0
:1035F0009C3600089C00002084060000440100085E
:103600000000000001020304010203040607080988
:103610000204060800000000000000CECE000032C8
:1036200032000032CE0000CE320000000300000065
:1036300000A24A0400000000000000000102030490
:103640000607080900000000DC05DC05DC05F401C4
:10365000F4018403DC05DC05DC05DC05DC05F40194
:10366000F4018403DC05DC050100D0070000000044
:103670000100000000000000000000000A0000003F
:10368000000000000000000000000000000000003A
:0C3690000000000000000000000000002E
:04000005080000ED02
:00000001FF
